{"contracts/filecoinMockAPIs/MinerAPI.sol":{"MinerAPI":{"abi":[{"inputs":[{"internalType":"string","name":"_owner","type":"string"}],"stateMutability":"nonpayable","type":"constructor"},{"inputs":[{"components":[{"internalType":"string","name":"new_beneficiary","type":"string"},{"internalType":"int256","name":"new_quota","type":"int256"},{"internalType":"uint64","name":"new_expiration","type":"uint64"}],"internalType":"struct MinerTypes.ChangeBeneficiaryParams","name":"params","type":"tuple"}],"name":"change_beneficiary","outputs":[],"stateMutability":"nonpayable","type":"function"},{"inputs":[{"internalType":"string","name":"addr","type":"string"}],"name":"change_owner_address","outputs":[],"stateMutability":"nonpayable","type":"function"},{"inputs":[],"name":"get_available_balance","outputs":[{"components":[{"internalType":"int256","name":"available_balance","type":"int256"}],"internalType":"struct MinerTypes.GetAvailableBalanceReturn","name":"","type":"tuple"}],"stateMutability":"pure","type":"function"},{"inputs":[],"name":"get_beneficiary","outputs":[{"components":[{"components":[{"internalType":"string","name":"beneficiary","type":"string"},{"components":[{"internalType":"int256","name":"quota","type":"int256"},{"internalType":"int256","name":"used_quota","type":"int256"},{"internalType":"uint64","name":"expiration","type":"uint64"}],"internalType":"struct CommonTypes.BeneficiaryTerm","name":"term","type":"tuple"}],"internalType":"struct CommonTypes.ActiveBeneficiary","name":"active","type":"tuple"},{"components":[{"internalType":"bytes","name":"new_beneficiary","type":"bytes"},{"internalType":"int256","name":"new_quota","type":"int256"},{"internalType":"uint64","name":"new_expiration","type":"uint64"},{"internalType":"bool","name":"approved_by_beneficiary","type":"bool"},{"internalType":"bool","name":"approved_by_nominee","type":"bool"}],"internalType":"struct CommonTypes.PendingBeneficiaryChange","name":"proposed","type":"tuple"}],"internalType":"struct MinerTypes.GetBeneficiaryReturn","name":"","type":"tuple"}],"stateMutability":"view","type":"function"},{"inputs":[],"name":"get_owner","outputs":[{"components":[{"internalType":"string","name":"owner","type":"string"}],"internalType":"struct MinerTypes.GetOwnerReturn","name":"","type":"tuple"}],"stateMutability":"view","type":"function"},{"inputs":[],"name":"get_sector_size","outputs":[{"components":[{"internalType":"uint64","name":"sector_size","type":"uint64"}],"internalType":"struct MinerTypes.GetSectorSizeReturn","name":"","type":"tuple"}],"stateMutability":"view","type":"function"},{"inputs":[],"name":"get_vesting_funds","outputs":[{"components":[{"components":[{"internalType":"int64","name":"epoch","type":"int64"},{"internalType":"int256","name":"amount","type":"int256"}],"internalType":"struct CommonTypes.VestingFunds[]","name":"vesting_funds","type":"tuple[]"}],"internalType":"struct MinerTypes.GetVestingFundsReturn","name":"","type":"tuple"}],"stateMutability":"pure","type":"function"},{"inputs":[{"components":[{"internalType":"string","name":"addr","type":"string"}],"internalType":"struct MinerTypes.IsControllingAddressParam","name":"params","type":"tuple"}],"name":"is_controlling_address","outputs":[{"components":[{"internalType":"bool","name":"is_controlling","type":"bool"}],"internalType":"struct MinerTypes.IsControllingAddressReturn","name":"","type":"tuple"}],"stateMutability":"pure","type":"function"},{"inputs":[{"internalType":"string","name":"addr","type":"string"}],"name":"mock_set_owner","outputs":[],"stateMutability":"nonpayable","type":"function"}],"devdoc":{"author":"Zondax AG","details":"Methods prefixed with mock_ will not be available in the real library. These methods are merely used to set mock state. Note that this interface will likely break in the future as we align it","kind":"dev","methods":{"change_owner_address(string)":{"params":{"addr":"New owner address"}},"get_available_balance()":{"returns":{"_0":"the available balance of this miner."}},"get_owner()":{"returns":{"_0":"the owner address of a Miner"}},"get_sector_size()":{"returns":{"_0":"the miner's sector size."}},"get_vesting_funds()":{"returns":{"_0":"the funds vesting in this miner as a list of (vesting_epoch, vesting_amount) tuples."}},"is_controlling_address((string))":{"params":{"params":"The \"controlling\" addresses are the Owner, the Worker, and all Control Addresses."},"returns":{"_0":"Whether the provided address is \"controlling\"."}}},"title":"This contract is a proxy to a built-in Miner actor. Calling one of its methods will result in a cross-actor call being performed. However, in this mock library, no actual call is performed.","version":1},"evm":{"bytecode":{"linkReferences":{},"object":"60806040526000600160006101000a81548160ff0219169083151502179055503480156200002c57600080fd5b5060405162001b5038038062001b50833981810160405281019062000052919062000408565b8060009081620000639190620006a4565b50610800600660008060048111156200008157620000806200078b565b5b60048111156200009657620000956200078b565b5b815260200190815260200160002060006101000a81548167ffffffffffffffff021916908367ffffffffffffffff160217905550628000006006600060016004811115620000e957620000e86200078b565b5b6004811115620000fe57620000fd6200078b565b5b815260200190815260200160002060006101000a81548167ffffffffffffffff021916908367ffffffffffffffff160217905550632000000060066000600260048111156200015257620001516200078b565b5b60048111156200016757620001666200078b565b5b815260200190815260200160002060006101000a81548167ffffffffffffffff021916908367ffffffffffffffff1602179055506408000000006006600060036004811115620001bc57620001bb6200078b565b5b6004811115620001d157620001d06200078b565b5b815260200190815260200160002060006101000a81548167ffffffffffffffff021916908367ffffffffffffffff160217905550641000000000600660006004808111156200022557620002246200078b565b5b60048111156200023a57620002396200078b565b5b815260200190815260200160002060006101000a81548167ffffffffffffffff021916908367ffffffffffffffff16021790555050620007ba565b6000604051905090565b600080fd5b600080fd5b600080fd5b600080fd5b6000601f19601f8301169050919050565b7f4e487b7100000000000000000000000000000000000000000000000000000000600052604160045260246000fd5b620002de8262000293565b810181811067ffffffffffffffff821117156200030057620002ff620002a4565b5b80604052505050565b60006200031562000275565b9050620003238282620002d3565b919050565b600067ffffffffffffffff821115620003465762000345620002a4565b5b620003518262000293565b9050602081019050919050565b60005b838110156200037e57808201518184015260208101905062000361565b60008484015250505050565b6000620003a16200039b8462000328565b62000309565b905082815260208101848484011115620003c057620003bf6200028e565b5b620003cd8482856200035e565b509392505050565b600082601f830112620003ed57620003ec62000289565b5b8151620003ff8482602086016200038a565b91505092915050565b6000602082840312156200042157620004206200027f565b5b600082015167ffffffffffffffff81111562000442576200044162000284565b5b6200045084828501620003d5565b91505092915050565b600081519050919050565b7f4e487b7100000000000000000000000000000000000000000000000000000000600052602260045260246000fd5b60006002820490506001821680620004ac57607f821691505b602082108103620004c257620004c162000464565b5b50919050565b60008190508160005260206000209050919050565b60006020601f8301049050919050565b600082821b905092915050565b6000600883026200052c7fffffffffffffffffffffffffffffffffffffffffffffffffffffffffffffffff82620004ed565b620005388683620004ed565b95508019841693508086168417925050509392505050565b6000819050919050565b6000819050919050565b6000620005856200057f620005798462000550565b6200055a565b62000550565b9050919050565b6000819050919050565b620005a18362000564565b620005b9620005b0826200058c565b848454620004fa565b825550505050565b600090565b620005d0620005c1565b620005dd81848462000596565b505050565b5b818110156200060557620005f9600082620005c6565b600181019050620005e3565b5050565b601f82111562000654576200061e81620004c8565b6200062984620004dd565b8101602085101562000639578190505b620006516200064885620004dd565b830182620005e2565b50505b505050565b600082821c905092915050565b6000620006796000198460080262000659565b1980831691505092915050565b600062000694838362000666565b9150826002028217905092915050565b620006af8262000459565b67ffffffffffffffff811115620006cb57620006ca620002a4565b5b620006d7825462000493565b620006e482828562000609565b600060209050601f8311600181146200071c576000841562000707578287015190505b62000713858262000686565b86555062000783565b601f1984166200072c86620004c8565b60005b8281101562000756578489015182556001820191506020850194506020810190506200072f565b8683101562000776578489015162000772601f89168262000666565b8355505b6001600288020188555050505b505050505050565b7f4e487b7100000000000000000000000000000000000000000000000000000000600052602160045260246000fd5b61138680620007ca6000396000f3fe608060405234801561001057600080fd5b50600436106100935760003560e01c806381ab68dd1161006657806381ab68dd1461010e578063a9b494a11461012a578063d9fc907e14610148578063e8d3863314610166578063f5cd020c1461019657610093565b80630ac298dc14610098578063207f2cec146100b6578063214c471c146100d257806359cf9e17146100f0575b600080fd5b6100a06101b2565b6040516100ad9190610898565b60405180910390f35b6100d060048036038101906100cb9190610a03565b610272565b005b6100da610285565b6040516100e79190610b89565b60405180910390f35b6100f861033f565b6040516101059190610bc7565b60405180910390f35b61012860048036038101906101239190610cd8565b610365565b005b6101326104ac565b60405161013f9190610d4c565b60405180910390f35b61015061051e565b60405161015d9190610f10565b60405180910390f35b610180600480360381019061017b9190610f8a565b61065a565b60405161018d9190610fef565b60405180910390f35b6101b060048036038101906101ab9190610a03565b61067b565b005b6101ba6106a8565b60008080546101c890611039565b9050036101d457600080fd5b6040518060200160405280600080546101ec90611039565b80601f016020809104026020016040519081016040528092919081815260200182805461021890611039565b80156102655780601f1061023a57610100808354040283529160200191610265565b820191906000526020600020905b81548152906001019060200180831161024857829003601f168201915b5050505050815250905090565b80600090816102819190611220565b5050565b61028d6106bb565b6000600167ffffffffffffffff8111156102aa576102a96108d8565b5b6040519080825280602002602001820160405280156102e357816020015b6102d06106ce565b8152602001906001900390816102c85790505b5090506040518060400160405280636373840960070b8152602001686c6b935b8bbd4000008152508160008151811061031f5761031e6112f2565b5b602002602001018190525060405180602001604052808281525091505090565b6103476106eb565b604051806020016040528069021e19e0c9bab2400000815250905090565b600160009054906101000a900460ff1661044d57600060405180606001604052808360200151815260200160008152602001836040015167ffffffffffffffff16815250905060405180604001604052808360000151815260200182815250600260008201518160000190816103db9190611220565b50602082015181600101600082015181600001556020820151816001015560408201518160020160006101000a81548167ffffffffffffffff021916908367ffffffffffffffff160217905550505090505060018060006101000a81548160ff021916908315150217905550506104a9565b8060000151600260000190816104639190611220565b5080602001516002600101600001819055508060400151600260010160020160006101000a81548167ffffffffffffffff021916908367ffffffffffffffff1602179055505b50565b6104b46106fe565b604051806020016040528060066000600160048111156104d7576104d6611321565b5b60048111156104e9576104e8611321565b5b815260200190815260200160002060009054906101000a900467ffffffffffffffff1667ffffffffffffffff16815250905090565b61052661071b565b600160009054906101000a900460ff1661053f57600080fd5b610547610741565b6040518060400160405280600260405180604001604052908160008201805461056f90611039565b80601f016020809104026020016040519081016040528092919081815260200182805461059b90611039565b80156105e85780601f106105bd576101008083540402835291602001916105e8565b820191906000526020600020905b8154815290600101906020018083116105cb57829003601f168201915b505050505081526020016001820160405180606001604052908160008201548152602001600182015481526020016002820160009054906101000a900467ffffffffffffffff1667ffffffffffffffff1667ffffffffffffffff16815250508152505081526020018281525091505090565b61066261077e565b6040518060200160405280600015158152509050919050565b600080805461068990611039565b90501461069557600080fd5b80600090816106a49190611220565b5050565b6040518060200160405280606081525090565b6040518060200160405280606081525090565b6040518060400160405280600060070b8152602001600081525090565b6040518060200160405280600081525090565b6040518060200160405280600067ffffffffffffffff1681525090565b604051806040016040528061072e610793565b815260200161073b610741565b81525090565b6040518060a001604052806060815260200160008152602001600067ffffffffffffffff1681526020016000151581526020016000151581525090565b60405180602001604052806000151581525090565b6040518060400160405280606081526020016107ad6107b3565b81525090565b60405180606001604052806000815260200160008152602001600067ffffffffffffffff1681525090565b600081519050919050565b600082825260208201905092915050565b60005b838110156108185780820151818401526020810190506107fd565b60008484015250505050565b6000601f19601f8301169050919050565b6000610840826107de565b61084a81856107e9565b935061085a8185602086016107fa565b61086381610824565b840191505092915050565b6000602083016000830151848203600086015261088b8282610835565b9150508091505092915050565b600060208201905081810360008301526108b2818461086e565b905092915050565b6000604051905090565b600080fd5b600080fd5b600080fd5b600080fd5b7f4e487b7100000000000000000000000000000000000000000000000000000000600052604160045260246000fd5b61091082610824565b810181811067ffffffffffffffff8211171561092f5761092e6108d8565b5b80604052505050565b60006109426108ba565b905061094e8282610907565b919050565b600067ffffffffffffffff82111561096e5761096d6108d8565b5b61097782610824565b9050602081019050919050565b82818337600083830152505050565b60006109a66109a184610953565b610938565b9050828152602081018484840111156109c2576109c16108d3565b5b6109cd848285610984565b509392505050565b600082601f8301126109ea576109e96108ce565b5b81356109fa848260208601610993565b91505092915050565b600060208284031215610a1957610a186108c4565b5b600082013567ffffffffffffffff811115610a3757610a366108c9565b5b610a43848285016109d5565b91505092915050565b600081519050919050565b600082825260208201905092915050565b6000819050602082019050919050565b60008160070b9050919050565b610a8e81610a78565b82525050565b6000819050919050565b610aa781610a94565b82525050565b604082016000820151610ac36000850182610a85565b506020820151610ad66020850182610a9e565b50505050565b6000610ae88383610aad565b60408301905092915050565b6000602082019050919050565b6000610b0c82610a4c565b610b168185610a57565b9350610b2183610a68565b8060005b83811015610b52578151610b398882610adc565b9750610b4483610af4565b925050600181019050610b25565b5085935050505092915050565b60006020830160008301518482036000860152610b7c8282610b01565b9150508091505092915050565b60006020820190508181036000830152610ba38184610b5f565b905092915050565b602082016000820151610bc16000850182610a9e565b50505050565b6000602082019050610bdc6000830184610bab565b92915050565b600080fd5b600080fd5b610bf581610a94565b8114610c0057600080fd5b50565b600081359050610c1281610bec565b92915050565b600067ffffffffffffffff82169050919050565b610c3581610c18565b8114610c4057600080fd5b50565b600081359050610c5281610c2c565b92915050565b600060608284031215610c6e57610c6d610be2565b5b610c786060610938565b9050600082013567ffffffffffffffff811115610c9857610c97610be7565b5b610ca4848285016109d5565b6000830152506020610cb884828501610c03565b6020830152506040610ccc84828501610c43565b60408301525092915050565b600060208284031215610cee57610ced6108c4565b5b600082013567ffffffffffffffff811115610d0c57610d0b6108c9565b5b610d1884828501610c58565b91505092915050565b610d2a81610c18565b82525050565b602082016000820151610d466000850182610d21565b50505050565b6000602082019050610d616000830184610d30565b92915050565b606082016000820151610d7d6000850182610a9e565b506020820151610d906020850182610a9e565b506040820151610da36040850182610d21565b50505050565b60006080830160008301518482036000860152610dc68282610835565b9150506020830151610ddb6020860182610d67565b508091505092915050565b600081519050919050565b600082825260208201905092915050565b6000610e0d82610de6565b610e178185610df1565b9350610e278185602086016107fa565b610e3081610824565b840191505092915050565b60008115159050919050565b610e5081610e3b565b82525050565b600060a0830160008301518482036000860152610e738282610e02565b9150506020830151610e886020860182610a9e565b506040830151610e9b6040860182610d21565b506060830151610eae6060860182610e47565b506080830151610ec16080860182610e47565b508091505092915050565b60006040830160008301518482036000860152610ee98282610da9565b91505060208301518482036020860152610f038282610e56565b9150508091505092915050565b60006020820190508181036000830152610f2a8184610ecc565b905092915050565b600060208284031215610f4857610f47610be2565b5b610f526020610938565b9050600082013567ffffffffffffffff811115610f7257610f71610be7565b5b610f7e848285016109d5565b60008301525092915050565b600060208284031215610fa057610f9f6108c4565b5b600082013567ffffffffffffffff811115610fbe57610fbd6108c9565b5b610fca84828501610f32565b91505092915050565b602082016000820151610fe96000850182610e47565b50505050565b60006020820190506110046000830184610fd3565b92915050565b7f4e487b7100000000000000000000000000000000000000000000000000000000600052602260045260246000fd5b6000600282049050600182168061105157607f821691505b6020821081036110645761106361100a565b5b50919050565b60008190508160005260206000209050919050565b60006020601f8301049050919050565b600082821b905092915050565b6000600883026110cc7fffffffffffffffffffffffffffffffffffffffffffffffffffffffffffffffff8261108f565b6110d6868361108f565b95508019841693508086168417925050509392505050565b6000819050919050565b6000819050919050565b600061111d611118611113846110ee565b6110f8565b6110ee565b9050919050565b6000819050919050565b61113783611102565b61114b61114382611124565b84845461109c565b825550505050565b600090565b611160611153565b61116b81848461112e565b505050565b5b8181101561118f57611184600082611158565b600181019050611171565b5050565b601f8211156111d4576111a58161106a565b6111ae8461107f565b810160208510156111bd578190505b6111d16111c98561107f565b830182611170565b50505b505050565b600082821c905092915050565b60006111f7600019846008026111d9565b1980831691505092915050565b600061121083836111e6565b9150826002028217905092915050565b611229826107de565b67ffffffffffffffff811115611242576112416108d8565b5b61124c8254611039565b611257828285611193565b600060209050601f83116001811461128a5760008415611278578287015190505b6112828582611204565b8655506112ea565b601f1984166112988661106a565b60005b828110156112c05784890151825560018201915060208501945060208101905061129b565b868310156112dd57848901516112d9601f8916826111e6565b8355505b6001600288020188555050505b505050505050565b7f4e487b7100000000000000000000000000000000000000000000000000000000600052603260045260246000fd5b7f4e487b7100000000000000000000000000000000000000000000000000000000600052602160045260246000fdfea264697066735822122049770cf8f11c945c6af54c4b36d6062671b8775ad61c4adebef5382bef9a608964736f6c63430008110033","opcodes":"PUSH1 0x80 PUSH1 0x40 MSTORE PUSH1 0x0 PUSH1 0x1 PUSH1 0x0 PUSH2 0x100 EXP DUP2 SLOAD DUP2 PUSH1 0xFF MUL NOT AND SWAP1 DUP4 ISZERO ISZERO MUL OR SWAP1 SSTORE POP CALLVALUE DUP1 ISZERO PUSH3 0x2C JUMPI PUSH1 0x0 DUP1 REVERT JUMPDEST POP PUSH1 0x40 MLOAD PUSH3 0x1B50 CODESIZE SUB DUP1 PUSH3 0x1B50 DUP4 CODECOPY DUP2 DUP2 ADD PUSH1 0x40 MSTORE DUP2 ADD SWAP1 PUSH3 0x52 SWAP2 SWAP1 PUSH3 0x408 JUMP JUMPDEST DUP1 PUSH1 0x0 SWAP1 DUP2 PUSH3 0x63 SWAP2 SWAP1 PUSH3 0x6A4 JUMP JUMPDEST POP PUSH2 0x800 PUSH1 0x6 PUSH1 0x0 DUP1 PUSH1 0x4 DUP2 GT ISZERO PUSH3 0x81 JUMPI PUSH3 0x80 PUSH3 0x78B JUMP JUMPDEST JUMPDEST PUSH1 0x4 DUP2 GT ISZERO PUSH3 0x96 JUMPI PUSH3 0x95 PUSH3 0x78B JUMP JUMPDEST JUMPDEST DUP2 MSTORE PUSH1 0x20 ADD SWAP1 DUP2 MSTORE PUSH1 0x20 ADD PUSH1 0x0 KECCAK256 PUSH1 0x0 PUSH2 0x100 EXP DUP2 SLOAD DUP2 PUSH8 0xFFFFFFFFFFFFFFFF MUL NOT AND SWAP1 DUP4 PUSH8 0xFFFFFFFFFFFFFFFF AND MUL OR SWAP1 SSTORE POP PUSH3 0x800000 PUSH1 0x6 PUSH1 0x0 PUSH1 0x1 PUSH1 0x4 DUP2 GT ISZERO PUSH3 0xE9 JUMPI PUSH3 0xE8 PUSH3 0x78B JUMP JUMPDEST JUMPDEST PUSH1 0x4 DUP2 GT ISZERO PUSH3 0xFE JUMPI PUSH3 0xFD PUSH3 0x78B JUMP JUMPDEST JUMPDEST DUP2 MSTORE PUSH1 0x20 ADD SWAP1 DUP2 MSTORE PUSH1 0x20 ADD PUSH1 0x0 KECCAK256 PUSH1 0x0 PUSH2 0x100 EXP DUP2 SLOAD DUP2 PUSH8 0xFFFFFFFFFFFFFFFF MUL NOT AND SWAP1 DUP4 PUSH8 0xFFFFFFFFFFFFFFFF AND MUL OR SWAP1 SSTORE POP PUSH4 0x20000000 PUSH1 0x6 PUSH1 0x0 PUSH1 0x2 PUSH1 0x4 DUP2 GT ISZERO PUSH3 0x152 JUMPI PUSH3 0x151 PUSH3 0x78B JUMP JUMPDEST JUMPDEST PUSH1 0x4 DUP2 GT ISZERO PUSH3 0x167 JUMPI PUSH3 0x166 PUSH3 0x78B JUMP JUMPDEST JUMPDEST DUP2 MSTORE PUSH1 0x20 ADD SWAP1 DUP2 MSTORE PUSH1 0x20 ADD PUSH1 0x0 KECCAK256 PUSH1 0x0 PUSH2 0x100 EXP DUP2 SLOAD DUP2 PUSH8 0xFFFFFFFFFFFFFFFF MUL NOT AND SWAP1 DUP4 PUSH8 0xFFFFFFFFFFFFFFFF AND MUL OR SWAP1 SSTORE POP PUSH5 0x800000000 PUSH1 0x6 PUSH1 0x0 PUSH1 0x3 PUSH1 0x4 DUP2 GT ISZERO PUSH3 0x1BC JUMPI PUSH3 0x1BB PUSH3 0x78B JUMP JUMPDEST JUMPDEST PUSH1 0x4 DUP2 GT ISZERO PUSH3 0x1D1 JUMPI PUSH3 0x1D0 PUSH3 0x78B JUMP JUMPDEST JUMPDEST DUP2 MSTORE PUSH1 0x20 ADD SWAP1 DUP2 MSTORE PUSH1 0x20 ADD PUSH1 0x0 KECCAK256 PUSH1 0x0 PUSH2 0x100 EXP DUP2 SLOAD DUP2 PUSH8 0xFFFFFFFFFFFFFFFF MUL NOT AND SWAP1 DUP4 PUSH8 0xFFFFFFFFFFFFFFFF AND MUL OR SWAP1 SSTORE POP PUSH5 0x1000000000 PUSH1 0x6 PUSH1 0x0 PUSH1 0x4 DUP1 DUP2 GT ISZERO PUSH3 0x225 JUMPI PUSH3 0x224 PUSH3 0x78B JUMP JUMPDEST JUMPDEST PUSH1 0x4 DUP2 GT ISZERO PUSH3 0x23A JUMPI PUSH3 0x239 PUSH3 0x78B JUMP JUMPDEST JUMPDEST DUP2 MSTORE PUSH1 0x20 ADD SWAP1 DUP2 MSTORE PUSH1 0x20 ADD PUSH1 0x0 KECCAK256 PUSH1 0x0 PUSH2 0x100 EXP DUP2 SLOAD DUP2 PUSH8 0xFFFFFFFFFFFFFFFF MUL NOT AND SWAP1 DUP4 PUSH8 0xFFFFFFFFFFFFFFFF AND MUL OR SWAP1 SSTORE POP POP PUSH3 0x7BA JUMP JUMPDEST PUSH1 0x0 PUSH1 0x40 MLOAD SWAP1 POP SWAP1 JUMP JUMPDEST PUSH1 0x0 DUP1 REVERT JUMPDEST PUSH1 0x0 DUP1 REVERT JUMPDEST PUSH1 0x0 DUP1 REVERT JUMPDEST PUSH1 0x0 DUP1 REVERT JUMPDEST PUSH1 0x0 PUSH1 0x1F NOT PUSH1 0x1F DUP4 ADD AND SWAP1 POP SWAP2 SWAP1 POP JUMP JUMPDEST PUSH32 0x4E487B7100000000000000000000000000000000000000000000000000000000 PUSH1 0x0 MSTORE PUSH1 0x41 PUSH1 0x4 MSTORE PUSH1 0x24 PUSH1 0x0 REVERT JUMPDEST PUSH3 0x2DE DUP3 PUSH3 0x293 JUMP JUMPDEST DUP2 ADD DUP2 DUP2 LT PUSH8 0xFFFFFFFFFFFFFFFF DUP3 GT OR ISZERO PUSH3 0x300 JUMPI PUSH3 0x2FF PUSH3 0x2A4 JUMP JUMPDEST JUMPDEST DUP1 PUSH1 0x40 MSTORE POP POP POP JUMP JUMPDEST PUSH1 0x0 PUSH3 0x315 PUSH3 0x275 JUMP JUMPDEST SWAP1 POP PUSH3 0x323 DUP3 DUP3 PUSH3 0x2D3 JUMP JUMPDEST SWAP2 SWAP1 POP JUMP JUMPDEST PUSH1 0x0 PUSH8 0xFFFFFFFFFFFFFFFF DUP3 GT ISZERO PUSH3 0x346 JUMPI PUSH3 0x345 PUSH3 0x2A4 JUMP JUMPDEST JUMPDEST PUSH3 0x351 DUP3 PUSH3 0x293 JUMP JUMPDEST SWAP1 POP PUSH1 0x20 DUP2 ADD SWAP1 POP SWAP2 SWAP1 POP JUMP JUMPDEST PUSH1 0x0 JUMPDEST DUP4 DUP2 LT ISZERO PUSH3 0x37E JUMPI DUP1 DUP3 ADD MLOAD DUP2 DUP5 ADD MSTORE PUSH1 0x20 DUP2 ADD SWAP1 POP PUSH3 0x361 JUMP JUMPDEST PUSH1 0x0 DUP5 DUP5 ADD MSTORE POP POP POP POP JUMP JUMPDEST PUSH1 0x0 PUSH3 0x3A1 PUSH3 0x39B DUP5 PUSH3 0x328 JUMP JUMPDEST PUSH3 0x309 JUMP JUMPDEST SWAP1 POP DUP3 DUP2 MSTORE PUSH1 0x20 DUP2 ADD DUP5 DUP5 DUP5 ADD GT ISZERO PUSH3 0x3C0 JUMPI PUSH3 0x3BF PUSH3 0x28E JUMP JUMPDEST JUMPDEST PUSH3 0x3CD DUP5 DUP3 DUP6 PUSH3 0x35E JUMP JUMPDEST POP SWAP4 SWAP3 POP POP POP JUMP JUMPDEST PUSH1 0x0 DUP3 PUSH1 0x1F DUP4 ADD SLT PUSH3 0x3ED JUMPI PUSH3 0x3EC PUSH3 0x289 JUMP JUMPDEST JUMPDEST DUP2 MLOAD PUSH3 0x3FF DUP5 DUP3 PUSH1 0x20 DUP7 ADD PUSH3 0x38A JUMP JUMPDEST SWAP2 POP POP SWAP3 SWAP2 POP POP JUMP JUMPDEST PUSH1 0x0 PUSH1 0x20 DUP3 DUP5 SUB SLT ISZERO PUSH3 0x421 JUMPI PUSH3 0x420 PUSH3 0x27F JUMP JUMPDEST JUMPDEST PUSH1 0x0 DUP3 ADD MLOAD PUSH8 0xFFFFFFFFFFFFFFFF DUP2 GT ISZERO PUSH3 0x442 JUMPI PUSH3 0x441 PUSH3 0x284 JUMP JUMPDEST JUMPDEST PUSH3 0x450 DUP5 DUP3 DUP6 ADD PUSH3 0x3D5 JUMP JUMPDEST SWAP2 POP POP SWAP3 SWAP2 POP POP JUMP JUMPDEST PUSH1 0x0 DUP2 MLOAD SWAP1 POP SWAP2 SWAP1 POP JUMP JUMPDEST PUSH32 0x4E487B7100000000000000000000000000000000000000000000000000000000 PUSH1 0x0 MSTORE PUSH1 0x22 PUSH1 0x4 MSTORE PUSH1 0x24 PUSH1 0x0 REVERT JUMPDEST PUSH1 0x0 PUSH1 0x2 DUP3 DIV SWAP1 POP PUSH1 0x1 DUP3 AND DUP1 PUSH3 0x4AC JUMPI PUSH1 0x7F DUP3 AND SWAP2 POP JUMPDEST PUSH1 0x20 DUP3 LT DUP2 SUB PUSH3 0x4C2 JUMPI PUSH3 0x4C1 PUSH3 0x464 JUMP JUMPDEST JUMPDEST POP SWAP2 SWAP1 POP JUMP JUMPDEST PUSH1 0x0 DUP2 SWAP1 POP DUP2 PUSH1 0x0 MSTORE PUSH1 0x20 PUSH1 0x0 KECCAK256 SWAP1 POP SWAP2 SWAP1 POP JUMP JUMPDEST PUSH1 0x0 PUSH1 0x20 PUSH1 0x1F DUP4 ADD DIV SWAP1 POP SWAP2 SWAP1 POP JUMP JUMPDEST PUSH1 0x0 DUP3 DUP3 SHL SWAP1 POP SWAP3 SWAP2 POP POP JUMP JUMPDEST PUSH1 0x0 PUSH1 0x8 DUP4 MUL PUSH3 0x52C PUSH32 0xFFFFFFFFFFFFFFFFFFFFFFFFFFFFFFFFFFFFFFFFFFFFFFFFFFFFFFFFFFFFFFFF DUP3 PUSH3 0x4ED JUMP JUMPDEST PUSH3 0x538 DUP7 DUP4 PUSH3 0x4ED JUMP JUMPDEST SWAP6 POP DUP1 NOT DUP5 AND SWAP4 POP DUP1 DUP7 AND DUP5 OR SWAP3 POP POP POP SWAP4 SWAP3 POP POP POP JUMP JUMPDEST PUSH1 0x0 DUP2 SWAP1 POP SWAP2 SWAP1 POP JUMP JUMPDEST PUSH1 0x0 DUP2 SWAP1 POP SWAP2 SWAP1 POP JUMP JUMPDEST PUSH1 0x0 PUSH3 0x585 PUSH3 0x57F PUSH3 0x579 DUP5 PUSH3 0x550 JUMP JUMPDEST PUSH3 0x55A JUMP JUMPDEST PUSH3 0x550 JUMP JUMPDEST SWAP1 POP SWAP2 SWAP1 POP JUMP JUMPDEST PUSH1 0x0 DUP2 SWAP1 POP SWAP2 SWAP1 POP JUMP JUMPDEST PUSH3 0x5A1 DUP4 PUSH3 0x564 JUMP JUMPDEST PUSH3 0x5B9 PUSH3 0x5B0 DUP3 PUSH3 0x58C JUMP JUMPDEST DUP5 DUP5 SLOAD PUSH3 0x4FA JUMP JUMPDEST DUP3 SSTORE POP POP POP POP JUMP JUMPDEST PUSH1 0x0 SWAP1 JUMP JUMPDEST PUSH3 0x5D0 PUSH3 0x5C1 JUMP JUMPDEST PUSH3 0x5DD DUP2 DUP5 DUP5 PUSH3 0x596 JUMP JUMPDEST POP POP POP JUMP JUMPDEST JUMPDEST DUP2 DUP2 LT ISZERO PUSH3 0x605 JUMPI PUSH3 0x5F9 PUSH1 0x0 DUP3 PUSH3 0x5C6 JUMP JUMPDEST PUSH1 0x1 DUP2 ADD SWAP1 POP PUSH3 0x5E3 JUMP JUMPDEST POP POP JUMP JUMPDEST PUSH1 0x1F DUP3 GT ISZERO PUSH3 0x654 JUMPI PUSH3 0x61E DUP2 PUSH3 0x4C8 JUMP JUMPDEST PUSH3 0x629 DUP5 PUSH3 0x4DD JUMP JUMPDEST DUP2 ADD PUSH1 0x20 DUP6 LT ISZERO PUSH3 0x639 JUMPI DUP2 SWAP1 POP JUMPDEST PUSH3 0x651 PUSH3 0x648 DUP6 PUSH3 0x4DD JUMP JUMPDEST DUP4 ADD DUP3 PUSH3 0x5E2 JUMP JUMPDEST POP POP JUMPDEST POP POP POP JUMP JUMPDEST PUSH1 0x0 DUP3 DUP3 SHR SWAP1 POP SWAP3 SWAP2 POP POP JUMP JUMPDEST PUSH1 0x0 PUSH3 0x679 PUSH1 0x0 NOT DUP5 PUSH1 0x8 MUL PUSH3 0x659 JUMP JUMPDEST NOT DUP1 DUP4 AND SWAP2 POP POP SWAP3 SWAP2 POP POP JUMP JUMPDEST PUSH1 0x0 PUSH3 0x694 DUP4 DUP4 PUSH3 0x666 JUMP JUMPDEST SWAP2 POP DUP3 PUSH1 0x2 MUL DUP3 OR SWAP1 POP SWAP3 SWAP2 POP POP JUMP JUMPDEST PUSH3 0x6AF DUP3 PUSH3 0x459 JUMP JUMPDEST PUSH8 0xFFFFFFFFFFFFFFFF DUP2 GT ISZERO PUSH3 0x6CB JUMPI PUSH3 0x6CA PUSH3 0x2A4 JUMP JUMPDEST JUMPDEST PUSH3 0x6D7 DUP3 SLOAD PUSH3 0x493 JUMP JUMPDEST PUSH3 0x6E4 DUP3 DUP3 DUP6 PUSH3 0x609 JUMP JUMPDEST PUSH1 0x0 PUSH1 0x20 SWAP1 POP PUSH1 0x1F DUP4 GT PUSH1 0x1 DUP2 EQ PUSH3 0x71C JUMPI PUSH1 0x0 DUP5 ISZERO PUSH3 0x707 JUMPI DUP3 DUP8 ADD MLOAD SWAP1 POP JUMPDEST PUSH3 0x713 DUP6 DUP3 PUSH3 0x686 JUMP JUMPDEST DUP7 SSTORE POP PUSH3 0x783 JUMP JUMPDEST PUSH1 0x1F NOT DUP5 AND PUSH3 0x72C DUP7 PUSH3 0x4C8 JUMP JUMPDEST PUSH1 0x0 JUMPDEST DUP3 DUP2 LT ISZERO PUSH3 0x756 JUMPI DUP5 DUP10 ADD MLOAD DUP3 SSTORE PUSH1 0x1 DUP3 ADD SWAP2 POP PUSH1 0x20 DUP6 ADD SWAP5 POP PUSH1 0x20 DUP2 ADD SWAP1 POP PUSH3 0x72F JUMP JUMPDEST DUP7 DUP4 LT ISZERO PUSH3 0x776 JUMPI DUP5 DUP10 ADD MLOAD PUSH3 0x772 PUSH1 0x1F DUP10 AND DUP3 PUSH3 0x666 JUMP JUMPDEST DUP4 SSTORE POP JUMPDEST PUSH1 0x1 PUSH1 0x2 DUP9 MUL ADD DUP9 SSTORE POP POP POP JUMPDEST POP POP POP POP POP POP JUMP JUMPDEST PUSH32 0x4E487B7100000000000000000000000000000000000000000000000000000000 PUSH1 0x0 MSTORE PUSH1 0x21 PUSH1 0x4 MSTORE PUSH1 0x24 PUSH1 0x0 REVERT JUMPDEST PUSH2 0x1386 DUP1 PUSH3 0x7CA PUSH1 0x0 CODECOPY PUSH1 0x0 RETURN INVALID PUSH1 0x80 PUSH1 0x40 MSTORE CALLVALUE DUP1 ISZERO PUSH2 0x10 JUMPI PUSH1 0x0 DUP1 REVERT JUMPDEST POP PUSH1 0x4 CALLDATASIZE LT PUSH2 0x93 JUMPI PUSH1 0x0 CALLDATALOAD PUSH1 0xE0 SHR DUP1 PUSH4 0x81AB68DD GT PUSH2 0x66 JUMPI DUP1 PUSH4 0x81AB68DD EQ PUSH2 0x10E JUMPI DUP1 PUSH4 0xA9B494A1 EQ PUSH2 0x12A JUMPI DUP1 PUSH4 0xD9FC907E EQ PUSH2 0x148 JUMPI DUP1 PUSH4 0xE8D38633 EQ PUSH2 0x166 JUMPI DUP1 PUSH4 0xF5CD020C EQ PUSH2 0x196 JUMPI PUSH2 0x93 JUMP JUMPDEST DUP1 PUSH4 0xAC298DC EQ PUSH2 0x98 JUMPI DUP1 PUSH4 0x207F2CEC EQ PUSH2 0xB6 JUMPI DUP1 PUSH4 0x214C471C EQ PUSH2 0xD2 JUMPI DUP1 PUSH4 0x59CF9E17 EQ PUSH2 0xF0 JUMPI JUMPDEST PUSH1 0x0 DUP1 REVERT JUMPDEST PUSH2 0xA0 PUSH2 0x1B2 JUMP JUMPDEST PUSH1 0x40 MLOAD PUSH2 0xAD SWAP2 SWAP1 PUSH2 0x898 JUMP JUMPDEST PUSH1 0x40 MLOAD DUP1 SWAP2 SUB SWAP1 RETURN JUMPDEST PUSH2 0xD0 PUSH1 0x4 DUP1 CALLDATASIZE SUB DUP2 ADD SWAP1 PUSH2 0xCB SWAP2 SWAP1 PUSH2 0xA03 JUMP JUMPDEST PUSH2 0x272 JUMP JUMPDEST STOP JUMPDEST PUSH2 0xDA PUSH2 0x285 JUMP JUMPDEST PUSH1 0x40 MLOAD PUSH2 0xE7 SWAP2 SWAP1 PUSH2 0xB89 JUMP JUMPDEST PUSH1 0x40 MLOAD DUP1 SWAP2 SUB SWAP1 RETURN JUMPDEST PUSH2 0xF8 PUSH2 0x33F JUMP JUMPDEST PUSH1 0x40 MLOAD PUSH2 0x105 SWAP2 SWAP1 PUSH2 0xBC7 JUMP JUMPDEST PUSH1 0x40 MLOAD DUP1 SWAP2 SUB SWAP1 RETURN JUMPDEST PUSH2 0x128 PUSH1 0x4 DUP1 CALLDATASIZE SUB DUP2 ADD SWAP1 PUSH2 0x123 SWAP2 SWAP1 PUSH2 0xCD8 JUMP JUMPDEST PUSH2 0x365 JUMP JUMPDEST STOP JUMPDEST PUSH2 0x132 PUSH2 0x4AC JUMP JUMPDEST PUSH1 0x40 MLOAD PUSH2 0x13F SWAP2 SWAP1 PUSH2 0xD4C JUMP JUMPDEST PUSH1 0x40 MLOAD DUP1 SWAP2 SUB SWAP1 RETURN JUMPDEST PUSH2 0x150 PUSH2 0x51E JUMP JUMPDEST PUSH1 0x40 MLOAD PUSH2 0x15D SWAP2 SWAP1 PUSH2 0xF10 JUMP JUMPDEST PUSH1 0x40 MLOAD DUP1 SWAP2 SUB SWAP1 RETURN JUMPDEST PUSH2 0x180 PUSH1 0x4 DUP1 CALLDATASIZE SUB DUP2 ADD SWAP1 PUSH2 0x17B SWAP2 SWAP1 PUSH2 0xF8A JUMP JUMPDEST PUSH2 0x65A JUMP JUMPDEST PUSH1 0x40 MLOAD PUSH2 0x18D SWAP2 SWAP1 PUSH2 0xFEF JUMP JUMPDEST PUSH1 0x40 MLOAD DUP1 SWAP2 SUB SWAP1 RETURN JUMPDEST PUSH2 0x1B0 PUSH1 0x4 DUP1 CALLDATASIZE SUB DUP2 ADD SWAP1 PUSH2 0x1AB SWAP2 SWAP1 PUSH2 0xA03 JUMP JUMPDEST PUSH2 0x67B JUMP JUMPDEST STOP JUMPDEST PUSH2 0x1BA PUSH2 0x6A8 JUMP JUMPDEST PUSH1 0x0 DUP1 DUP1 SLOAD PUSH2 0x1C8 SWAP1 PUSH2 0x1039 JUMP JUMPDEST SWAP1 POP SUB PUSH2 0x1D4 JUMPI PUSH1 0x0 DUP1 REVERT JUMPDEST PUSH1 0x40 MLOAD DUP1 PUSH1 0x20 ADD PUSH1 0x40 MSTORE DUP1 PUSH1 0x0 DUP1 SLOAD PUSH2 0x1EC SWAP1 PUSH2 0x1039 JUMP JUMPDEST DUP1 PUSH1 0x1F ADD PUSH1 0x20 DUP1 SWAP2 DIV MUL PUSH1 0x20 ADD PUSH1 0x40 MLOAD SWAP1 DUP2 ADD PUSH1 0x40 MSTORE DUP1 SWAP3 SWAP2 SWAP1 DUP2 DUP2 MSTORE PUSH1 0x20 ADD DUP3 DUP1 SLOAD PUSH2 0x218 SWAP1 PUSH2 0x1039 JUMP JUMPDEST DUP1 ISZERO PUSH2 0x265 JUMPI DUP1 PUSH1 0x1F LT PUSH2 0x23A JUMPI PUSH2 0x100 DUP1 DUP4 SLOAD DIV MUL DUP4 MSTORE SWAP2 PUSH1 0x20 ADD SWAP2 PUSH2 0x265 JUMP JUMPDEST DUP3 ADD SWAP2 SWAP1 PUSH1 0x0 MSTORE PUSH1 0x20 PUSH1 0x0 KECCAK256 SWAP1 JUMPDEST DUP2 SLOAD DUP2 MSTORE SWAP1 PUSH1 0x1 ADD SWAP1 PUSH1 0x20 ADD DUP1 DUP4 GT PUSH2 0x248 JUMPI DUP3 SWAP1 SUB PUSH1 0x1F AND DUP3 ADD SWAP2 JUMPDEST POP POP POP POP POP DUP2 MSTORE POP SWAP1 POP SWAP1 JUMP JUMPDEST DUP1 PUSH1 0x0 SWAP1 DUP2 PUSH2 0x281 SWAP2 SWAP1 PUSH2 0x1220 JUMP JUMPDEST POP POP JUMP JUMPDEST PUSH2 0x28D PUSH2 0x6BB JUMP JUMPDEST PUSH1 0x0 PUSH1 0x1 PUSH8 0xFFFFFFFFFFFFFFFF DUP2 GT ISZERO PUSH2 0x2AA JUMPI PUSH2 0x2A9 PUSH2 0x8D8 JUMP JUMPDEST JUMPDEST PUSH1 0x40 MLOAD SWAP1 DUP1 DUP3 MSTORE DUP1 PUSH1 0x20 MUL PUSH1 0x20 ADD DUP3 ADD PUSH1 0x40 MSTORE DUP1 ISZERO PUSH2 0x2E3 JUMPI DUP2 PUSH1 0x20 ADD JUMPDEST PUSH2 0x2D0 PUSH2 0x6CE JUMP JUMPDEST DUP2 MSTORE PUSH1 0x20 ADD SWAP1 PUSH1 0x1 SWAP1 SUB SWAP1 DUP2 PUSH2 0x2C8 JUMPI SWAP1 POP JUMPDEST POP SWAP1 POP PUSH1 0x40 MLOAD DUP1 PUSH1 0x40 ADD PUSH1 0x40 MSTORE DUP1 PUSH4 0x63738409 PUSH1 0x7 SIGNEXTEND DUP2 MSTORE PUSH1 0x20 ADD PUSH9 0x6C6B935B8BBD400000 DUP2 MSTORE POP DUP2 PUSH1 0x0 DUP2 MLOAD DUP2 LT PUSH2 0x31F JUMPI PUSH2 0x31E PUSH2 0x12F2 JUMP JUMPDEST JUMPDEST PUSH1 0x20 MUL PUSH1 0x20 ADD ADD DUP2 SWAP1 MSTORE POP PUSH1 0x40 MLOAD DUP1 PUSH1 0x20 ADD PUSH1 0x40 MSTORE DUP1 DUP3 DUP2 MSTORE POP SWAP2 POP POP SWAP1 JUMP JUMPDEST PUSH2 0x347 PUSH2 0x6EB JUMP JUMPDEST PUSH1 0x40 MLOAD DUP1 PUSH1 0x20 ADD PUSH1 0x40 MSTORE DUP1 PUSH10 0x21E19E0C9BAB2400000 DUP2 MSTORE POP SWAP1 POP SWAP1 JUMP JUMPDEST PUSH1 0x1 PUSH1 0x0 SWAP1 SLOAD SWAP1 PUSH2 0x100 EXP SWAP1 DIV PUSH1 0xFF AND PUSH2 0x44D JUMPI PUSH1 0x0 PUSH1 0x40 MLOAD DUP1 PUSH1 0x60 ADD PUSH1 0x40 MSTORE DUP1 DUP4 PUSH1 0x20 ADD MLOAD DUP2 MSTORE PUSH1 0x20 ADD PUSH1 0x0 DUP2 MSTORE PUSH1 0x20 ADD DUP4 PUSH1 0x40 ADD MLOAD PUSH8 0xFFFFFFFFFFFFFFFF AND DUP2 MSTORE POP SWAP1 POP PUSH1 0x40 MLOAD DUP1 PUSH1 0x40 ADD PUSH1 0x40 MSTORE DUP1 DUP4 PUSH1 0x0 ADD MLOAD DUP2 MSTORE PUSH1 0x20 ADD DUP3 DUP2 MSTORE POP PUSH1 0x2 PUSH1 0x0 DUP3 ADD MLOAD DUP2 PUSH1 0x0 ADD SWAP1 DUP2 PUSH2 0x3DB SWAP2 SWAP1 PUSH2 0x1220 JUMP JUMPDEST POP PUSH1 0x20 DUP3 ADD MLOAD DUP2 PUSH1 0x1 ADD PUSH1 0x0 DUP3 ADD MLOAD DUP2 PUSH1 0x0 ADD SSTORE PUSH1 0x20 DUP3 ADD MLOAD DUP2 PUSH1 0x1 ADD SSTORE PUSH1 0x40 DUP3 ADD MLOAD DUP2 PUSH1 0x2 ADD PUSH1 0x0 PUSH2 0x100 EXP DUP2 SLOAD DUP2 PUSH8 0xFFFFFFFFFFFFFFFF MUL NOT AND SWAP1 DUP4 PUSH8 0xFFFFFFFFFFFFFFFF AND MUL OR SWAP1 SSTORE POP POP POP SWAP1 POP POP PUSH1 0x1 DUP1 PUSH1 0x0 PUSH2 0x100 EXP DUP2 SLOAD DUP2 PUSH1 0xFF MUL NOT AND SWAP1 DUP4 ISZERO ISZERO MUL OR SWAP1 SSTORE POP POP PUSH2 0x4A9 JUMP JUMPDEST DUP1 PUSH1 0x0 ADD MLOAD PUSH1 0x2 PUSH1 0x0 ADD SWAP1 DUP2 PUSH2 0x463 SWAP2 SWAP1 PUSH2 0x1220 JUMP JUMPDEST POP DUP1 PUSH1 0x20 ADD MLOAD PUSH1 0x2 PUSH1 0x1 ADD PUSH1 0x0 ADD DUP2 SWAP1 SSTORE POP DUP1 PUSH1 0x40 ADD MLOAD PUSH1 0x2 PUSH1 0x1 ADD PUSH1 0x2 ADD PUSH1 0x0 PUSH2 0x100 EXP DUP2 SLOAD DUP2 PUSH8 0xFFFFFFFFFFFFFFFF MUL NOT AND SWAP1 DUP4 PUSH8 0xFFFFFFFFFFFFFFFF AND MUL OR SWAP1 SSTORE POP JUMPDEST POP JUMP JUMPDEST PUSH2 0x4B4 PUSH2 0x6FE JUMP JUMPDEST PUSH1 0x40 MLOAD DUP1 PUSH1 0x20 ADD PUSH1 0x40 MSTORE DUP1 PUSH1 0x6 PUSH1 0x0 PUSH1 0x1 PUSH1 0x4 DUP2 GT ISZERO PUSH2 0x4D7 JUMPI PUSH2 0x4D6 PUSH2 0x1321 JUMP JUMPDEST JUMPDEST PUSH1 0x4 DUP2 GT ISZERO PUSH2 0x4E9 JUMPI PUSH2 0x4E8 PUSH2 0x1321 JUMP JUMPDEST JUMPDEST DUP2 MSTORE PUSH1 0x20 ADD SWAP1 DUP2 MSTORE PUSH1 0x20 ADD PUSH1 0x0 KECCAK256 PUSH1 0x0 SWAP1 SLOAD SWAP1 PUSH2 0x100 EXP SWAP1 DIV PUSH8 0xFFFFFFFFFFFFFFFF AND PUSH8 0xFFFFFFFFFFFFFFFF AND DUP2 MSTORE POP SWAP1 POP SWAP1 JUMP JUMPDEST PUSH2 0x526 PUSH2 0x71B JUMP JUMPDEST PUSH1 0x1 PUSH1 0x0 SWAP1 SLOAD SWAP1 PUSH2 0x100 EXP SWAP1 DIV PUSH1 0xFF AND PUSH2 0x53F JUMPI PUSH1 0x0 DUP1 REVERT JUMPDEST PUSH2 0x547 PUSH2 0x741 JUMP JUMPDEST PUSH1 0x40 MLOAD DUP1 PUSH1 0x40 ADD PUSH1 0x40 MSTORE DUP1 PUSH1 0x2 PUSH1 0x40 MLOAD DUP1 PUSH1 0x40 ADD PUSH1 0x40 MSTORE SWAP1 DUP2 PUSH1 0x0 DUP3 ADD DUP1 SLOAD PUSH2 0x56F SWAP1 PUSH2 0x1039 JUMP JUMPDEST DUP1 PUSH1 0x1F ADD PUSH1 0x20 DUP1 SWAP2 DIV MUL PUSH1 0x20 ADD PUSH1 0x40 MLOAD SWAP1 DUP2 ADD PUSH1 0x40 MSTORE DUP1 SWAP3 SWAP2 SWAP1 DUP2 DUP2 MSTORE PUSH1 0x20 ADD DUP3 DUP1 SLOAD PUSH2 0x59B SWAP1 PUSH2 0x1039 JUMP JUMPDEST DUP1 ISZERO PUSH2 0x5E8 JUMPI DUP1 PUSH1 0x1F LT PUSH2 0x5BD JUMPI PUSH2 0x100 DUP1 DUP4 SLOAD DIV MUL DUP4 MSTORE SWAP2 PUSH1 0x20 ADD SWAP2 PUSH2 0x5E8 JUMP JUMPDEST DUP3 ADD SWAP2 SWAP1 PUSH1 0x0 MSTORE PUSH1 0x20 PUSH1 0x0 KECCAK256 SWAP1 JUMPDEST DUP2 SLOAD DUP2 MSTORE SWAP1 PUSH1 0x1 ADD SWAP1 PUSH1 0x20 ADD DUP1 DUP4 GT PUSH2 0x5CB JUMPI DUP3 SWAP1 SUB PUSH1 0x1F AND DUP3 ADD SWAP2 JUMPDEST POP POP POP POP POP DUP2 MSTORE PUSH1 0x20 ADD PUSH1 0x1 DUP3 ADD PUSH1 0x40 MLOAD DUP1 PUSH1 0x60 ADD PUSH1 0x40 MSTORE SWAP1 DUP2 PUSH1 0x0 DUP3 ADD SLOAD DUP2 MSTORE PUSH1 0x20 ADD PUSH1 0x1 DUP3 ADD SLOAD DUP2 MSTORE PUSH1 0x20 ADD PUSH1 0x2 DUP3 ADD PUSH1 0x0 SWAP1 SLOAD SWAP1 PUSH2 0x100 EXP SWAP1 DIV PUSH8 0xFFFFFFFFFFFFFFFF AND PUSH8 0xFFFFFFFFFFFFFFFF AND PUSH8 0xFFFFFFFFFFFFFFFF AND DUP2 MSTORE POP POP DUP2 MSTORE POP POP DUP2 MSTORE PUSH1 0x20 ADD DUP3 DUP2 MSTORE POP SWAP2 POP POP SWAP1 JUMP JUMPDEST PUSH2 0x662 PUSH2 0x77E JUMP JUMPDEST PUSH1 0x40 MLOAD DUP1 PUSH1 0x20 ADD PUSH1 0x40 MSTORE DUP1 PUSH1 0x0 ISZERO ISZERO DUP2 MSTORE POP SWAP1 POP SWAP2 SWAP1 POP JUMP JUMPDEST PUSH1 0x0 DUP1 DUP1 SLOAD PUSH2 0x689 SWAP1 PUSH2 0x1039 JUMP JUMPDEST SWAP1 POP EQ PUSH2 0x695 JUMPI PUSH1 0x0 DUP1 REVERT JUMPDEST DUP1 PUSH1 0x0 SWAP1 DUP2 PUSH2 0x6A4 SWAP2 SWAP1 PUSH2 0x1220 JUMP JUMPDEST POP POP JUMP JUMPDEST PUSH1 0x40 MLOAD DUP1 PUSH1 0x20 ADD PUSH1 0x40 MSTORE DUP1 PUSH1 0x60 DUP2 MSTORE POP SWAP1 JUMP JUMPDEST PUSH1 0x40 MLOAD DUP1 PUSH1 0x20 ADD PUSH1 0x40 MSTORE DUP1 PUSH1 0x60 DUP2 MSTORE POP SWAP1 JUMP JUMPDEST PUSH1 0x40 MLOAD DUP1 PUSH1 0x40 ADD PUSH1 0x40 MSTORE DUP1 PUSH1 0x0 PUSH1 0x7 SIGNEXTEND DUP2 MSTORE PUSH1 0x20 ADD PUSH1 0x0 DUP2 MSTORE POP SWAP1 JUMP JUMPDEST PUSH1 0x40 MLOAD DUP1 PUSH1 0x20 ADD PUSH1 0x40 MSTORE DUP1 PUSH1 0x0 DUP2 MSTORE POP SWAP1 JUMP JUMPDEST PUSH1 0x40 MLOAD DUP1 PUSH1 0x20 ADD PUSH1 0x40 MSTORE DUP1 PUSH1 0x0 PUSH8 0xFFFFFFFFFFFFFFFF AND DUP2 MSTORE POP SWAP1 JUMP JUMPDEST PUSH1 0x40 MLOAD DUP1 PUSH1 0x40 ADD PUSH1 0x40 MSTORE DUP1 PUSH2 0x72E PUSH2 0x793 JUMP JUMPDEST DUP2 MSTORE PUSH1 0x20 ADD PUSH2 0x73B PUSH2 0x741 JUMP JUMPDEST DUP2 MSTORE POP SWAP1 JUMP JUMPDEST PUSH1 0x40 MLOAD DUP1 PUSH1 0xA0 ADD PUSH1 0x40 MSTORE DUP1 PUSH1 0x60 DUP2 MSTORE PUSH1 0x20 ADD PUSH1 0x0 DUP2 MSTORE PUSH1 0x20 ADD PUSH1 0x0 PUSH8 0xFFFFFFFFFFFFFFFF AND DUP2 MSTORE PUSH1 0x20 ADD PUSH1 0x0 ISZERO ISZERO DUP2 MSTORE PUSH1 0x20 ADD PUSH1 0x0 ISZERO ISZERO DUP2 MSTORE POP SWAP1 JUMP JUMPDEST PUSH1 0x40 MLOAD DUP1 PUSH1 0x20 ADD PUSH1 0x40 MSTORE DUP1 PUSH1 0x0 ISZERO ISZERO DUP2 MSTORE POP SWAP1 JUMP JUMPDEST PUSH1 0x40 MLOAD DUP1 PUSH1 0x40 ADD PUSH1 0x40 MSTORE DUP1 PUSH1 0x60 DUP2 MSTORE PUSH1 0x20 ADD PUSH2 0x7AD PUSH2 0x7B3 JUMP JUMPDEST DUP2 MSTORE POP SWAP1 JUMP JUMPDEST PUSH1 0x40 MLOAD DUP1 PUSH1 0x60 ADD PUSH1 0x40 MSTORE DUP1 PUSH1 0x0 DUP2 MSTORE PUSH1 0x20 ADD PUSH1 0x0 DUP2 MSTORE PUSH1 0x20 ADD PUSH1 0x0 PUSH8 0xFFFFFFFFFFFFFFFF AND DUP2 MSTORE POP SWAP1 JUMP JUMPDEST PUSH1 0x0 DUP2 MLOAD SWAP1 POP SWAP2 SWAP1 POP JUMP JUMPDEST PUSH1 0x0 DUP3 DUP3 MSTORE PUSH1 0x20 DUP3 ADD SWAP1 POP SWAP3 SWAP2 POP POP JUMP JUMPDEST PUSH1 0x0 JUMPDEST DUP4 DUP2 LT ISZERO PUSH2 0x818 JUMPI DUP1 DUP3 ADD MLOAD DUP2 DUP5 ADD MSTORE PUSH1 0x20 DUP2 ADD SWAP1 POP PUSH2 0x7FD JUMP JUMPDEST PUSH1 0x0 DUP5 DUP5 ADD MSTORE POP POP POP POP JUMP JUMPDEST PUSH1 0x0 PUSH1 0x1F NOT PUSH1 0x1F DUP4 ADD AND SWAP1 POP SWAP2 SWAP1 POP JUMP JUMPDEST PUSH1 0x0 PUSH2 0x840 DUP3 PUSH2 0x7DE JUMP JUMPDEST PUSH2 0x84A DUP2 DUP6 PUSH2 0x7E9 JUMP JUMPDEST SWAP4 POP PUSH2 0x85A DUP2 DUP6 PUSH1 0x20 DUP7 ADD PUSH2 0x7FA JUMP JUMPDEST PUSH2 0x863 DUP2 PUSH2 0x824 JUMP JUMPDEST DUP5 ADD SWAP2 POP POP SWAP3 SWAP2 POP POP JUMP JUMPDEST PUSH1 0x0 PUSH1 0x20 DUP4 ADD PUSH1 0x0 DUP4 ADD MLOAD DUP5 DUP3 SUB PUSH1 0x0 DUP7 ADD MSTORE PUSH2 0x88B DUP3 DUP3 PUSH2 0x835 JUMP JUMPDEST SWAP2 POP POP DUP1 SWAP2 POP POP SWAP3 SWAP2 POP POP JUMP JUMPDEST PUSH1 0x0 PUSH1 0x20 DUP3 ADD SWAP1 POP DUP2 DUP2 SUB PUSH1 0x0 DUP4 ADD MSTORE PUSH2 0x8B2 DUP2 DUP5 PUSH2 0x86E JUMP JUMPDEST SWAP1 POP SWAP3 SWAP2 POP POP JUMP JUMPDEST PUSH1 0x0 PUSH1 0x40 MLOAD SWAP1 POP SWAP1 JUMP JUMPDEST PUSH1 0x0 DUP1 REVERT JUMPDEST PUSH1 0x0 DUP1 REVERT JUMPDEST PUSH1 0x0 DUP1 REVERT JUMPDEST PUSH1 0x0 DUP1 REVERT JUMPDEST PUSH32 0x4E487B7100000000000000000000000000000000000000000000000000000000 PUSH1 0x0 MSTORE PUSH1 0x41 PUSH1 0x4 MSTORE PUSH1 0x24 PUSH1 0x0 REVERT JUMPDEST PUSH2 0x910 DUP3 PUSH2 0x824 JUMP JUMPDEST DUP2 ADD DUP2 DUP2 LT PUSH8 0xFFFFFFFFFFFFFFFF DUP3 GT OR ISZERO PUSH2 0x92F JUMPI PUSH2 0x92E PUSH2 0x8D8 JUMP JUMPDEST JUMPDEST DUP1 PUSH1 0x40 MSTORE POP POP POP JUMP JUMPDEST PUSH1 0x0 PUSH2 0x942 PUSH2 0x8BA JUMP JUMPDEST SWAP1 POP PUSH2 0x94E DUP3 DUP3 PUSH2 0x907 JUMP JUMPDEST SWAP2 SWAP1 POP JUMP JUMPDEST PUSH1 0x0 PUSH8 0xFFFFFFFFFFFFFFFF DUP3 GT ISZERO PUSH2 0x96E JUMPI PUSH2 0x96D PUSH2 0x8D8 JUMP JUMPDEST JUMPDEST PUSH2 0x977 DUP3 PUSH2 0x824 JUMP JUMPDEST SWAP1 POP PUSH1 0x20 DUP2 ADD SWAP1 POP SWAP2 SWAP1 POP JUMP JUMPDEST DUP3 DUP2 DUP4 CALLDATACOPY PUSH1 0x0 DUP4 DUP4 ADD MSTORE POP POP POP JUMP JUMPDEST PUSH1 0x0 PUSH2 0x9A6 PUSH2 0x9A1 DUP5 PUSH2 0x953 JUMP JUMPDEST PUSH2 0x938 JUMP JUMPDEST SWAP1 POP DUP3 DUP2 MSTORE PUSH1 0x20 DUP2 ADD DUP5 DUP5 DUP5 ADD GT ISZERO PUSH2 0x9C2 JUMPI PUSH2 0x9C1 PUSH2 0x8D3 JUMP JUMPDEST JUMPDEST PUSH2 0x9CD DUP5 DUP3 DUP6 PUSH2 0x984 JUMP JUMPDEST POP SWAP4 SWAP3 POP POP POP JUMP JUMPDEST PUSH1 0x0 DUP3 PUSH1 0x1F DUP4 ADD SLT PUSH2 0x9EA JUMPI PUSH2 0x9E9 PUSH2 0x8CE JUMP JUMPDEST JUMPDEST DUP2 CALLDATALOAD PUSH2 0x9FA DUP5 DUP3 PUSH1 0x20 DUP7 ADD PUSH2 0x993 JUMP JUMPDEST SWAP2 POP POP SWAP3 SWAP2 POP POP JUMP JUMPDEST PUSH1 0x0 PUSH1 0x20 DUP3 DUP5 SUB SLT ISZERO PUSH2 0xA19 JUMPI PUSH2 0xA18 PUSH2 0x8C4 JUMP JUMPDEST JUMPDEST PUSH1 0x0 DUP3 ADD CALLDATALOAD PUSH8 0xFFFFFFFFFFFFFFFF DUP2 GT ISZERO PUSH2 0xA37 JUMPI PUSH2 0xA36 PUSH2 0x8C9 JUMP JUMPDEST JUMPDEST PUSH2 0xA43 DUP5 DUP3 DUP6 ADD PUSH2 0x9D5 JUMP JUMPDEST SWAP2 POP POP SWAP3 SWAP2 POP POP JUMP JUMPDEST PUSH1 0x0 DUP2 MLOAD SWAP1 POP SWAP2 SWAP1 POP JUMP JUMPDEST PUSH1 0x0 DUP3 DUP3 MSTORE PUSH1 0x20 DUP3 ADD SWAP1 POP SWAP3 SWAP2 POP POP JUMP JUMPDEST PUSH1 0x0 DUP2 SWAP1 POP PUSH1 0x20 DUP3 ADD SWAP1 POP SWAP2 SWAP1 POP JUMP JUMPDEST PUSH1 0x0 DUP2 PUSH1 0x7 SIGNEXTEND SWAP1 POP SWAP2 SWAP1 POP JUMP JUMPDEST PUSH2 0xA8E DUP2 PUSH2 0xA78 JUMP JUMPDEST DUP3 MSTORE POP POP JUMP JUMPDEST PUSH1 0x0 DUP2 SWAP1 POP SWAP2 SWAP1 POP JUMP JUMPDEST PUSH2 0xAA7 DUP2 PUSH2 0xA94 JUMP JUMPDEST DUP3 MSTORE POP POP JUMP JUMPDEST PUSH1 0x40 DUP3 ADD PUSH1 0x0 DUP3 ADD MLOAD PUSH2 0xAC3 PUSH1 0x0 DUP6 ADD DUP3 PUSH2 0xA85 JUMP JUMPDEST POP PUSH1 0x20 DUP3 ADD MLOAD PUSH2 0xAD6 PUSH1 0x20 DUP6 ADD DUP3 PUSH2 0xA9E JUMP JUMPDEST POP POP POP POP JUMP JUMPDEST PUSH1 0x0 PUSH2 0xAE8 DUP4 DUP4 PUSH2 0xAAD JUMP JUMPDEST PUSH1 0x40 DUP4 ADD SWAP1 POP SWAP3 SWAP2 POP POP JUMP JUMPDEST PUSH1 0x0 PUSH1 0x20 DUP3 ADD SWAP1 POP SWAP2 SWAP1 POP JUMP JUMPDEST PUSH1 0x0 PUSH2 0xB0C DUP3 PUSH2 0xA4C JUMP JUMPDEST PUSH2 0xB16 DUP2 DUP6 PUSH2 0xA57 JUMP JUMPDEST SWAP4 POP PUSH2 0xB21 DUP4 PUSH2 0xA68 JUMP JUMPDEST DUP1 PUSH1 0x0 JUMPDEST DUP4 DUP2 LT ISZERO PUSH2 0xB52 JUMPI DUP2 MLOAD PUSH2 0xB39 DUP9 DUP3 PUSH2 0xADC JUMP JUMPDEST SWAP8 POP PUSH2 0xB44 DUP4 PUSH2 0xAF4 JUMP JUMPDEST SWAP3 POP POP PUSH1 0x1 DUP2 ADD SWAP1 POP PUSH2 0xB25 JUMP JUMPDEST POP DUP6 SWAP4 POP POP POP POP SWAP3 SWAP2 POP POP JUMP JUMPDEST PUSH1 0x0 PUSH1 0x20 DUP4 ADD PUSH1 0x0 DUP4 ADD MLOAD DUP5 DUP3 SUB PUSH1 0x0 DUP7 ADD MSTORE PUSH2 0xB7C DUP3 DUP3 PUSH2 0xB01 JUMP JUMPDEST SWAP2 POP POP DUP1 SWAP2 POP POP SWAP3 SWAP2 POP POP JUMP JUMPDEST PUSH1 0x0 PUSH1 0x20 DUP3 ADD SWAP1 POP DUP2 DUP2 SUB PUSH1 0x0 DUP4 ADD MSTORE PUSH2 0xBA3 DUP2 DUP5 PUSH2 0xB5F JUMP JUMPDEST SWAP1 POP SWAP3 SWAP2 POP POP JUMP JUMPDEST PUSH1 0x20 DUP3 ADD PUSH1 0x0 DUP3 ADD MLOAD PUSH2 0xBC1 PUSH1 0x0 DUP6 ADD DUP3 PUSH2 0xA9E JUMP JUMPDEST POP POP POP POP JUMP JUMPDEST PUSH1 0x0 PUSH1 0x20 DUP3 ADD SWAP1 POP PUSH2 0xBDC PUSH1 0x0 DUP4 ADD DUP5 PUSH2 0xBAB JUMP JUMPDEST SWAP3 SWAP2 POP POP JUMP JUMPDEST PUSH1 0x0 DUP1 REVERT JUMPDEST PUSH1 0x0 DUP1 REVERT JUMPDEST PUSH2 0xBF5 DUP2 PUSH2 0xA94 JUMP JUMPDEST DUP2 EQ PUSH2 0xC00 JUMPI PUSH1 0x0 DUP1 REVERT JUMPDEST POP JUMP JUMPDEST PUSH1 0x0 DUP2 CALLDATALOAD SWAP1 POP PUSH2 0xC12 DUP2 PUSH2 0xBEC JUMP JUMPDEST SWAP3 SWAP2 POP POP JUMP JUMPDEST PUSH1 0x0 PUSH8 0xFFFFFFFFFFFFFFFF DUP3 AND SWAP1 POP SWAP2 SWAP1 POP JUMP JUMPDEST PUSH2 0xC35 DUP2 PUSH2 0xC18 JUMP JUMPDEST DUP2 EQ PUSH2 0xC40 JUMPI PUSH1 0x0 DUP1 REVERT JUMPDEST POP JUMP JUMPDEST PUSH1 0x0 DUP2 CALLDATALOAD SWAP1 POP PUSH2 0xC52 DUP2 PUSH2 0xC2C JUMP JUMPDEST SWAP3 SWAP2 POP POP JUMP JUMPDEST PUSH1 0x0 PUSH1 0x60 DUP3 DUP5 SUB SLT ISZERO PUSH2 0xC6E JUMPI PUSH2 0xC6D PUSH2 0xBE2 JUMP JUMPDEST JUMPDEST PUSH2 0xC78 PUSH1 0x60 PUSH2 0x938 JUMP JUMPDEST SWAP1 POP PUSH1 0x0 DUP3 ADD CALLDATALOAD PUSH8 0xFFFFFFFFFFFFFFFF DUP2 GT ISZERO PUSH2 0xC98 JUMPI PUSH2 0xC97 PUSH2 0xBE7 JUMP JUMPDEST JUMPDEST PUSH2 0xCA4 DUP5 DUP3 DUP6 ADD PUSH2 0x9D5 JUMP JUMPDEST PUSH1 0x0 DUP4 ADD MSTORE POP PUSH1 0x20 PUSH2 0xCB8 DUP5 DUP3 DUP6 ADD PUSH2 0xC03 JUMP JUMPDEST PUSH1 0x20 DUP4 ADD MSTORE POP PUSH1 0x40 PUSH2 0xCCC DUP5 DUP3 DUP6 ADD PUSH2 0xC43 JUMP JUMPDEST PUSH1 0x40 DUP4 ADD MSTORE POP SWAP3 SWAP2 POP POP JUMP JUMPDEST PUSH1 0x0 PUSH1 0x20 DUP3 DUP5 SUB SLT ISZERO PUSH2 0xCEE JUMPI PUSH2 0xCED PUSH2 0x8C4 JUMP JUMPDEST JUMPDEST PUSH1 0x0 DUP3 ADD CALLDATALOAD PUSH8 0xFFFFFFFFFFFFFFFF DUP2 GT ISZERO PUSH2 0xD0C JUMPI PUSH2 0xD0B PUSH2 0x8C9 JUMP JUMPDEST JUMPDEST PUSH2 0xD18 DUP5 DUP3 DUP6 ADD PUSH2 0xC58 JUMP JUMPDEST SWAP2 POP POP SWAP3 SWAP2 POP POP JUMP JUMPDEST PUSH2 0xD2A DUP2 PUSH2 0xC18 JUMP JUMPDEST DUP3 MSTORE POP POP JUMP JUMPDEST PUSH1 0x20 DUP3 ADD PUSH1 0x0 DUP3 ADD MLOAD PUSH2 0xD46 PUSH1 0x0 DUP6 ADD DUP3 PUSH2 0xD21 JUMP JUMPDEST POP POP POP POP JUMP JUMPDEST PUSH1 0x0 PUSH1 0x20 DUP3 ADD SWAP1 POP PUSH2 0xD61 PUSH1 0x0 DUP4 ADD DUP5 PUSH2 0xD30 JUMP JUMPDEST SWAP3 SWAP2 POP POP JUMP JUMPDEST PUSH1 0x60 DUP3 ADD PUSH1 0x0 DUP3 ADD MLOAD PUSH2 0xD7D PUSH1 0x0 DUP6 ADD DUP3 PUSH2 0xA9E JUMP JUMPDEST POP PUSH1 0x20 DUP3 ADD MLOAD PUSH2 0xD90 PUSH1 0x20 DUP6 ADD DUP3 PUSH2 0xA9E JUMP JUMPDEST POP PUSH1 0x40 DUP3 ADD MLOAD PUSH2 0xDA3 PUSH1 0x40 DUP6 ADD DUP3 PUSH2 0xD21 JUMP JUMPDEST POP POP POP POP JUMP JUMPDEST PUSH1 0x0 PUSH1 0x80 DUP4 ADD PUSH1 0x0 DUP4 ADD MLOAD DUP5 DUP3 SUB PUSH1 0x0 DUP7 ADD MSTORE PUSH2 0xDC6 DUP3 DUP3 PUSH2 0x835 JUMP JUMPDEST SWAP2 POP POP PUSH1 0x20 DUP4 ADD MLOAD PUSH2 0xDDB PUSH1 0x20 DUP7 ADD DUP3 PUSH2 0xD67 JUMP JUMPDEST POP DUP1 SWAP2 POP POP SWAP3 SWAP2 POP POP JUMP JUMPDEST PUSH1 0x0 DUP2 MLOAD SWAP1 POP SWAP2 SWAP1 POP JUMP JUMPDEST PUSH1 0x0 DUP3 DUP3 MSTORE PUSH1 0x20 DUP3 ADD SWAP1 POP SWAP3 SWAP2 POP POP JUMP JUMPDEST PUSH1 0x0 PUSH2 0xE0D DUP3 PUSH2 0xDE6 JUMP JUMPDEST PUSH2 0xE17 DUP2 DUP6 PUSH2 0xDF1 JUMP JUMPDEST SWAP4 POP PUSH2 0xE27 DUP2 DUP6 PUSH1 0x20 DUP7 ADD PUSH2 0x7FA JUMP JUMPDEST PUSH2 0xE30 DUP2 PUSH2 0x824 JUMP JUMPDEST DUP5 ADD SWAP2 POP POP SWAP3 SWAP2 POP POP JUMP JUMPDEST PUSH1 0x0 DUP2 ISZERO ISZERO SWAP1 POP SWAP2 SWAP1 POP JUMP JUMPDEST PUSH2 0xE50 DUP2 PUSH2 0xE3B JUMP JUMPDEST DUP3 MSTORE POP POP JUMP JUMPDEST PUSH1 0x0 PUSH1 0xA0 DUP4 ADD PUSH1 0x0 DUP4 ADD MLOAD DUP5 DUP3 SUB PUSH1 0x0 DUP7 ADD MSTORE PUSH2 0xE73 DUP3 DUP3 PUSH2 0xE02 JUMP JUMPDEST SWAP2 POP POP PUSH1 0x20 DUP4 ADD MLOAD PUSH2 0xE88 PUSH1 0x20 DUP7 ADD DUP3 PUSH2 0xA9E JUMP JUMPDEST POP PUSH1 0x40 DUP4 ADD MLOAD PUSH2 0xE9B PUSH1 0x40 DUP7 ADD DUP3 PUSH2 0xD21 JUMP JUMPDEST POP PUSH1 0x60 DUP4 ADD MLOAD PUSH2 0xEAE PUSH1 0x60 DUP7 ADD DUP3 PUSH2 0xE47 JUMP JUMPDEST POP PUSH1 0x80 DUP4 ADD MLOAD PUSH2 0xEC1 PUSH1 0x80 DUP7 ADD DUP3 PUSH2 0xE47 JUMP JUMPDEST POP DUP1 SWAP2 POP POP SWAP3 SWAP2 POP POP JUMP JUMPDEST PUSH1 0x0 PUSH1 0x40 DUP4 ADD PUSH1 0x0 DUP4 ADD MLOAD DUP5 DUP3 SUB PUSH1 0x0 DUP7 ADD MSTORE PUSH2 0xEE9 DUP3 DUP3 PUSH2 0xDA9 JUMP JUMPDEST SWAP2 POP POP PUSH1 0x20 DUP4 ADD MLOAD DUP5 DUP3 SUB PUSH1 0x20 DUP7 ADD MSTORE PUSH2 0xF03 DUP3 DUP3 PUSH2 0xE56 JUMP JUMPDEST SWAP2 POP POP DUP1 SWAP2 POP POP SWAP3 SWAP2 POP POP JUMP JUMPDEST PUSH1 0x0 PUSH1 0x20 DUP3 ADD SWAP1 POP DUP2 DUP2 SUB PUSH1 0x0 DUP4 ADD MSTORE PUSH2 0xF2A DUP2 DUP5 PUSH2 0xECC JUMP JUMPDEST SWAP1 POP SWAP3 SWAP2 POP POP JUMP JUMPDEST PUSH1 0x0 PUSH1 0x20 DUP3 DUP5 SUB SLT ISZERO PUSH2 0xF48 JUMPI PUSH2 0xF47 PUSH2 0xBE2 JUMP JUMPDEST JUMPDEST PUSH2 0xF52 PUSH1 0x20 PUSH2 0x938 JUMP JUMPDEST SWAP1 POP PUSH1 0x0 DUP3 ADD CALLDATALOAD PUSH8 0xFFFFFFFFFFFFFFFF DUP2 GT ISZERO PUSH2 0xF72 JUMPI PUSH2 0xF71 PUSH2 0xBE7 JUMP JUMPDEST JUMPDEST PUSH2 0xF7E DUP5 DUP3 DUP6 ADD PUSH2 0x9D5 JUMP JUMPDEST PUSH1 0x0 DUP4 ADD MSTORE POP SWAP3 SWAP2 POP POP JUMP JUMPDEST PUSH1 0x0 PUSH1 0x20 DUP3 DUP5 SUB SLT ISZERO PUSH2 0xFA0 JUMPI PUSH2 0xF9F PUSH2 0x8C4 JUMP JUMPDEST JUMPDEST PUSH1 0x0 DUP3 ADD CALLDATALOAD PUSH8 0xFFFFFFFFFFFFFFFF DUP2 GT ISZERO PUSH2 0xFBE JUMPI PUSH2 0xFBD PUSH2 0x8C9 JUMP JUMPDEST JUMPDEST PUSH2 0xFCA DUP5 DUP3 DUP6 ADD PUSH2 0xF32 JUMP JUMPDEST SWAP2 POP POP SWAP3 SWAP2 POP POP JUMP JUMPDEST PUSH1 0x20 DUP3 ADD PUSH1 0x0 DUP3 ADD MLOAD PUSH2 0xFE9 PUSH1 0x0 DUP6 ADD DUP3 PUSH2 0xE47 JUMP JUMPDEST POP POP POP POP JUMP JUMPDEST PUSH1 0x0 PUSH1 0x20 DUP3 ADD SWAP1 POP PUSH2 0x1004 PUSH1 0x0 DUP4 ADD DUP5 PUSH2 0xFD3 JUMP JUMPDEST SWAP3 SWAP2 POP POP JUMP JUMPDEST PUSH32 0x4E487B7100000000000000000000000000000000000000000000000000000000 PUSH1 0x0 MSTORE PUSH1 0x22 PUSH1 0x4 MSTORE PUSH1 0x24 PUSH1 0x0 REVERT JUMPDEST PUSH1 0x0 PUSH1 0x2 DUP3 DIV SWAP1 POP PUSH1 0x1 DUP3 AND DUP1 PUSH2 0x1051 JUMPI PUSH1 0x7F DUP3 AND SWAP2 POP JUMPDEST PUSH1 0x20 DUP3 LT DUP2 SUB PUSH2 0x1064 JUMPI PUSH2 0x1063 PUSH2 0x100A JUMP JUMPDEST JUMPDEST POP SWAP2 SWAP1 POP JUMP JUMPDEST PUSH1 0x0 DUP2 SWAP1 POP DUP2 PUSH1 0x0 MSTORE PUSH1 0x20 PUSH1 0x0 KECCAK256 SWAP1 POP SWAP2 SWAP1 POP JUMP JUMPDEST PUSH1 0x0 PUSH1 0x20 PUSH1 0x1F DUP4 ADD DIV SWAP1 POP SWAP2 SWAP1 POP JUMP JUMPDEST PUSH1 0x0 DUP3 DUP3 SHL SWAP1 POP SWAP3 SWAP2 POP POP JUMP JUMPDEST PUSH1 0x0 PUSH1 0x8 DUP4 MUL PUSH2 0x10CC PUSH32 0xFFFFFFFFFFFFFFFFFFFFFFFFFFFFFFFFFFFFFFFFFFFFFFFFFFFFFFFFFFFFFFFF DUP3 PUSH2 0x108F JUMP JUMPDEST PUSH2 0x10D6 DUP7 DUP4 PUSH2 0x108F JUMP JUMPDEST SWAP6 POP DUP1 NOT DUP5 AND SWAP4 POP DUP1 DUP7 AND DUP5 OR SWAP3 POP POP POP SWAP4 SWAP3 POP POP POP JUMP JUMPDEST PUSH1 0x0 DUP2 SWAP1 POP SWAP2 SWAP1 POP JUMP JUMPDEST PUSH1 0x0 DUP2 SWAP1 POP SWAP2 SWAP1 POP JUMP JUMPDEST PUSH1 0x0 PUSH2 0x111D PUSH2 0x1118 PUSH2 0x1113 DUP5 PUSH2 0x10EE JUMP JUMPDEST PUSH2 0x10F8 JUMP JUMPDEST PUSH2 0x10EE JUMP JUMPDEST SWAP1 POP SWAP2 SWAP1 POP JUMP JUMPDEST PUSH1 0x0 DUP2 SWAP1 POP SWAP2 SWAP1 POP JUMP JUMPDEST PUSH2 0x1137 DUP4 PUSH2 0x1102 JUMP JUMPDEST PUSH2 0x114B PUSH2 0x1143 DUP3 PUSH2 0x1124 JUMP JUMPDEST DUP5 DUP5 SLOAD PUSH2 0x109C JUMP JUMPDEST DUP3 SSTORE POP POP POP POP JUMP JUMPDEST PUSH1 0x0 SWAP1 JUMP JUMPDEST PUSH2 0x1160 PUSH2 0x1153 JUMP JUMPDEST PUSH2 0x116B DUP2 DUP5 DUP5 PUSH2 0x112E JUMP JUMPDEST POP POP POP JUMP JUMPDEST JUMPDEST DUP2 DUP2 LT ISZERO PUSH2 0x118F JUMPI PUSH2 0x1184 PUSH1 0x0 DUP3 PUSH2 0x1158 JUMP JUMPDEST PUSH1 0x1 DUP2 ADD SWAP1 POP PUSH2 0x1171 JUMP JUMPDEST POP POP JUMP JUMPDEST PUSH1 0x1F DUP3 GT ISZERO PUSH2 0x11D4 JUMPI PUSH2 0x11A5 DUP2 PUSH2 0x106A JUMP JUMPDEST PUSH2 0x11AE DUP5 PUSH2 0x107F JUMP JUMPDEST DUP2 ADD PUSH1 0x20 DUP6 LT ISZERO PUSH2 0x11BD JUMPI DUP2 SWAP1 POP JUMPDEST PUSH2 0x11D1 PUSH2 0x11C9 DUP6 PUSH2 0x107F JUMP JUMPDEST DUP4 ADD DUP3 PUSH2 0x1170 JUMP JUMPDEST POP POP JUMPDEST POP POP POP JUMP JUMPDEST PUSH1 0x0 DUP3 DUP3 SHR SWAP1 POP SWAP3 SWAP2 POP POP JUMP JUMPDEST PUSH1 0x0 PUSH2 0x11F7 PUSH1 0x0 NOT DUP5 PUSH1 0x8 MUL PUSH2 0x11D9 JUMP JUMPDEST NOT DUP1 DUP4 AND SWAP2 POP POP SWAP3 SWAP2 POP POP JUMP JUMPDEST PUSH1 0x0 PUSH2 0x1210 DUP4 DUP4 PUSH2 0x11E6 JUMP JUMPDEST SWAP2 POP DUP3 PUSH1 0x2 MUL DUP3 OR SWAP1 POP SWAP3 SWAP2 POP POP JUMP JUMPDEST PUSH2 0x1229 DUP3 PUSH2 0x7DE JUMP JUMPDEST PUSH8 0xFFFFFFFFFFFFFFFF DUP2 GT ISZERO PUSH2 0x1242 JUMPI PUSH2 0x1241 PUSH2 0x8D8 JUMP JUMPDEST JUMPDEST PUSH2 0x124C DUP3 SLOAD PUSH2 0x1039 JUMP JUMPDEST PUSH2 0x1257 DUP3 DUP3 DUP6 PUSH2 0x1193 JUMP JUMPDEST PUSH1 0x0 PUSH1 0x20 SWAP1 POP PUSH1 0x1F DUP4 GT PUSH1 0x1 DUP2 EQ PUSH2 0x128A JUMPI PUSH1 0x0 DUP5 ISZERO PUSH2 0x1278 JUMPI DUP3 DUP8 ADD MLOAD SWAP1 POP JUMPDEST PUSH2 0x1282 DUP6 DUP3 PUSH2 0x1204 JUMP JUMPDEST DUP7 SSTORE POP PUSH2 0x12EA JUMP JUMPDEST PUSH1 0x1F NOT DUP5 AND PUSH2 0x1298 DUP7 PUSH2 0x106A JUMP JUMPDEST PUSH1 0x0 JUMPDEST DUP3 DUP2 LT ISZERO PUSH2 0x12C0 JUMPI DUP5 DUP10 ADD MLOAD DUP3 SSTORE PUSH1 0x1 DUP3 ADD SWAP2 POP PUSH1 0x20 DUP6 ADD SWAP5 POP PUSH1 0x20 DUP2 ADD SWAP1 POP PUSH2 0x129B JUMP JUMPDEST DUP7 DUP4 LT ISZERO PUSH2 0x12DD JUMPI DUP5 DUP10 ADD MLOAD PUSH2 0x12D9 PUSH1 0x1F DUP10 AND DUP3 PUSH2 0x11E6 JUMP JUMPDEST DUP4 SSTORE POP JUMPDEST PUSH1 0x1 PUSH1 0x2 DUP9 MUL ADD DUP9 SSTORE POP POP POP JUMPDEST POP POP POP POP POP POP JUMP JUMPDEST PUSH32 0x4E487B7100000000000000000000000000000000000000000000000000000000 PUSH1 0x0 MSTORE PUSH1 0x32 PUSH1 0x4 MSTORE PUSH1 0x24 PUSH1 0x0 REVERT JUMPDEST PUSH32 0x4E487B7100000000000000000000000000000000000000000000000000000000 PUSH1 0x0 MSTORE PUSH1 0x21 PUSH1 0x4 MSTORE PUSH1 0x24 PUSH1 0x0 REVERT INVALID LOG2 PUSH5 0x6970667358 0x22 SLT KECCAK256 0x49 PUSH24 0xCF8F11C945C6AF54C4B36D6062671B8775AD61C4ADEBEF5 CODESIZE 0x2B 0xEF SWAP11 PUSH1 0x89 PUSH5 0x736F6C6343 STOP ADDMOD GT STOP CALLER "},"gasEstimates":{"creation":{"codeDepositCost":"999600","executionCost":"infinite","totalCost":"infinite"},"external":{"change_beneficiary((string,int256,uint64))":"infinite","change_owner_address(string)":"infinite","get_available_balance()":"566","get_beneficiary()":"infinite","get_owner()":"infinite","get_sector_size()":"2805","get_vesting_funds()":"infinite","is_controlling_address((string))":"infinite","mock_set_owner(string)":"infinite"}},"methodIdentifiers":{"change_beneficiary((string,int256,uint64))":"81ab68dd","change_owner_address(string)":"207f2cec","get_available_balance()":"59cf9e17","get_beneficiary()":"d9fc907e","get_owner()":"0ac298dc","get_sector_size()":"a9b494a1","get_vesting_funds()":"214c471c","is_controlling_address((string))":"e8d38633","mock_set_owner(string)":"f5cd020c"}},"storageLayout":{"storage":[{"astId":638,"contract":"contracts/filecoinMockAPIs/MinerAPI.sol:MinerAPI","label":"owner","offset":0,"slot":"0","type":"t_string_storage"},{"astId":641,"contract":"contracts/filecoinMockAPIs/MinerAPI.sol:MinerAPI","label":"isBeneficiarySet","offset":0,"slot":"1","type":"t_bool"},{"astId":644,"contract":"contracts/filecoinMockAPIs/MinerAPI.sol:MinerAPI","label":"activeBeneficiary","offset":0,"slot":"2","type":"t_struct(ActiveBeneficiary)1023_storage"},{"astId":649,"contract":"contracts/filecoinMockAPIs/MinerAPI.sol:MinerAPI","label":"sectorSizesBytes","offset":0,"slot":"6","type":"t_mapping(t_enum(SectorSize)983,t_uint64)"}],"types":{"t_bool":{"encoding":"inplace","label":"bool","numberOfBytes":"1"},"t_enum(SectorSize)983":{"encoding":"inplace","label":"enum CommonTypes.SectorSize","numberOfBytes":"1"},"t_int256":{"encoding":"inplace","label":"int256","numberOfBytes":"32"},"t_mapping(t_enum(SectorSize)983,t_uint64)":{"encoding":"mapping","key":"t_enum(SectorSize)983","label":"mapping(enum CommonTypes.SectorSize => uint64)","numberOfBytes":"32","value":"t_uint64"},"t_string_storage":{"encoding":"bytes","label":"string","numberOfBytes":"32"},"t_struct(ActiveBeneficiary)1023_storage":{"encoding":"inplace","label":"struct CommonTypes.ActiveBeneficiary","members":[{"astId":1019,"contract":"contracts/filecoinMockAPIs/MinerAPI.sol:MinerAPI","label":"beneficiary","offset":0,"slot":"0","type":"t_string_storage"},{"astId":1022,"contract":"contracts/filecoinMockAPIs/MinerAPI.sol:MinerAPI","label":"term","offset":0,"slot":"1","type":"t_struct(BeneficiaryTerm)1017_storage"}],"numberOfBytes":"128"},"t_struct(BeneficiaryTerm)1017_storage":{"encoding":"inplace","label":"struct CommonTypes.BeneficiaryTerm","members":[{"astId":1012,"contract":"contracts/filecoinMockAPIs/MinerAPI.sol:MinerAPI","label":"quota","offset":0,"slot":"0","type":"t_int256"},{"astId":1014,"contract":"contracts/filecoinMockAPIs/MinerAPI.sol:MinerAPI","label":"used_quota","offset":0,"slot":"1","type":"t_int256"},{"astId":1016,"contract":"contracts/filecoinMockAPIs/MinerAPI.sol:MinerAPI","label":"expiration","offset":0,"slot":"2","type":"t_uint64"}],"numberOfBytes":"96"},"t_uint64":{"encoding":"inplace","label":"uint64","numberOfBytes":"8"}}},"userdoc":{"kind":"user","methods":{"change_beneficiary((string,int256,uint64))":{"notice":"Proposes or confirms a change of beneficiary address.A proposal must be submitted by the owner, and takes effect after approval of both the proposed beneficiary and current beneficiary, if applicable, any current beneficiary that has time and quota remaining.See FIP-0029, https://github.com/filecoin-project/FIPs/blob/master/FIPS/fip-0029.md"},"change_owner_address(string)":{"notice":"Proposes or confirms a change of owner address.If invoked by the current owner, proposes a new owner address for confirmation. If the proposed address is the current owner address, revokes any existing proposal that proposed address."},"constructor":{"notice":"(Mock method) Sets the owner of a Miner on contract deployment, which will be returned via get_owner()."},"get_available_balance()":{"notice":"This is calculated as actor balance - (vesting funds + pre-commit deposit + initial pledge requirement + fee debt)Can go negative if the miner is in IP debt."},"get_beneficiary()":{"notice":"This method is for use by other actors (such as those acting as beneficiaries), and to abstract the state representation for clients.Retrieves the currently active and proposed beneficiary information."},"get_owner()":{"notice":"Income and returned collateral are paid to this addressThis address is also allowed to change the worker address for the miner"},"mock_set_owner(string)":{"notice":"(Mock method) Sets the owner of a Miner, which will be returned via get_owner()."}},"version":1}}}}